:020000040800F2
:1000000040080020CD010008171300084112000825
:1000100015130008E1020008DD16000800000000CA
:100020000000000000000000000000001B1300089A
:1000300039030008000000001913000861130008CC
:10004000E7010008E7010008E7010008E7010008F0
:10005000E7010008E7010008E7010008E7010008E0
:10006000E7010008E7010008E7010008E7010008D0
:10007000E7010008E7010008E7010008E7010008C0
:10008000E7010008E7010008E7010008E7010008B0
:10009000E7010008E7010008E7010008E7010008A0
:1000A000E7010008E7010008E7010008E701000890
:1000B000E7010008AD130008E7010008E7010008A8
:1000C000E7010008E7010008E7010008E701000870
:1000D000E7010008B1160008E7010008E701000881
:1000E000E7010008E7010008E7010008E701000850
:1000F000E7010008E7010008E7010008E701000840
:10010000E7010008E7010008E7010008E70100082F
:10011000E7010008E7010008E7010008E70100081F
:10012000E7010008E7010008E7010008E70100080F
:1001300000F002F800F03AF80AA090E8000C8244BF
:100140008344AAF10107DA4501D100F02FF8AFF29C
:10015000090EBAE80F0013F0010F18BFFB1A43F0A5
:1001600001031847FC1900001C1A0000103A24BFB4
:1001700078C878C1FAD8520724BF30C830C144BF0C
:1001800004680C607047000000230024002500264E
:10019000103A28BF78C1FBD8520728BF30C148BFEA
:1001A0000B6070471FB51FBD10B510BD00F065F89E
:1001B0001146FFF7F7FF01F0ADFA00F083F803B442
:1001C000FFF7F2FF03BC01F09AFA000009488047EC
:1001D00009480047FEE7FEE7FEE7FEE7FEE7FEE729
:1001E000FEE7FEE7FEE7FEE704480549054A064B41
:1001F000704700006513000831010008400200202C
:10020000400800204004002040040020704710B542
:10021000203AC0F00B80B1E81850203AA0E81850FE
:10022000B1E81850A0E81850BFF4F5AF5FEA027CBF
:1002300024BFB1E81850A0E8185044BF18C918C02E
:10024000BDE810405FEA827C24BF51F8043B40F8CF
:10025000043B08BF7047D20728BF31F8023B48BFB4
:1002600011F8012B28BF20F8023B48BF00F8012BF2
:1002700070477047704770477047754600F02CF81C
:10028000AE4605006946534620F00700854618B083
:1002900020B5FFF7A9FFBDE820404FF000064FF062
:1002A00000074FF000084FF0000B21F00701AC46AB
:1002B000ACE8C009ACE8C009ACE8C009ACE8C009CA
:1002C0008D46704710B50446AFF300802046BDE868
:1002D0001040FFF774BF000000487047E0010020A5
:1002E000FEE700002DE9F041ADF5007D0D46074623
:1002F000FF264FF48078344642460D496846FFF7A2
:1003000086FF42460B4940A8FFF781FF694640AA95
:1003100005E017F8010B60400C5C7440165C6D1E24
:10032000EDB2F6D20DF5007D44EA0620BDE8F0817D
:1003300060190008601A0008704700002DE9F05F9E
:1003400090F821100024022903D0042181630124A4
:1003500085E001680A6822F00E020A6001680A68F6
:1003600022F001020A603F4E3E4FB215DFF8F4C0A2
:10037000DFF8F090DFF8ECA0DFF8E8B0DFF8E4E0B9
:100380000168783F13011502ACF1640CA9F1500922
:10039000AAF13C0AABF1280BAEF1140E4FF4801811
:1003A000B14227D9B9420ED0614512D049451DD07E
:1003B000514518D0594518D0714501D1424615E034
:1003C000294EB14201D1012210E0274E1436B1422C
:1003D00001D110220AE0244E2836B14206D0224A2A
:1003E0003C32914201D11A4600E02A461E49091FBB
:1003F0000A602BE0B94213D0614517D0494522D09D
:1004000051451DD059451DD0714501D142461AE0D4
:10041000B14202D14FF0807215E0134EB14201D1CA
:10042000012210E0104E1436B14201D110220AE030
:100430000D4E2836B14206D00B4A3C32914201D1D2
:100440001A4600E02A46074980394A60012180F8AF
:100450002110002180F82010416B01B1884720460F
:10046000BDE8F09F80000240080402402DE9F84FEB
:10047000DFF8C091002409F1040A0AF1040B2346B5
:100480004FF00F080BF1040ECCE00127A7403A40D3
:10049000BA4272D1DFF8A0C14D68A5EB0C066545E4
:1004A0002BD00DDC032D34D005DC35B3012D19D054
:1004B000022D2FD11BE0112D16D0122D2AD119E0BB
:1004C000B6F5881F19D006DCB6F5803F15D0B6F515
:1004D000801F1FD111E0B6F5001F0ED0B6F5041F26
:1004E00018D10AE0CB6815E0CB681B1D12E0CB6881
:1004F00008330FE0CB680C330CE08B682BB1012B79
:100500004FF0080303D0476104E0042302E00761D1
:1005100000E00023FF2A01D8064601E000F10406AE
:100520004FEA840501D9A5F12005376808FA05FCD2
:1005300027EA0C0703FA05F547EA050737604D6817
:10054000ED006ED53D4DAE6946F00106AE61AD6978
:1005500024F0030605F001050095394D7719BE68B2
:10056000A5072D0F08FA05FC26EA0C06DFF8D4C013
:10057000604503D14FF0000C25E052E0DFF8C8C021
:10058000604502D14FF0010C1DE0DFF8C0C06045AE
:1005900002D14FF0020C16E0DFF8B4C0604502D182
:1005A0004FF0030C0FE0DFF8ACC0604502D14FF014
:1005B000040C08E0DFF8A0C0604502D14FF0050C44
:1005C00001E04FF0060C0CFA05FC4CEA060CC7F8EB
:1005D00008C04D68D9F80060ED034D4601D51643BB
:1005E00000E096432E604D68DAF80060AD03554692
:1005F00001D5164300E096432E604D68DBF800609D
:10060000ED025D4601D5164300E096432E604D682D
:10061000DEF80060AD02754601D5164300E0964352
:100620002E60641C0A6832FA04F57FF42EAFBDE830
:10063000F88F00000004014000001110001002407B
:100640000000014000080140000C01400010014082
:100650000014014000180140001C01400AB1016172
:1006600070470904FBE700000148806870470000FC
:1006700004000020024881680278114481607047BC
:1006800004000020074810B5016841F01001016026
:10069000052000F057F80F2000F006F800F024F8CD
:1006A000002010BD0020024070B50D4D04464FF4EF
:1006B0007A712878B1FBF0F00A490968B1FBF0F0D3
:1006C00000F0DCFA48B9102C07D200222146501E57
:1006D00000F018F800206C6070BD012070BD0000B3
:1006E00004000020000000207047002809DB00F013
:1006F0001F02012191404009800000F1E020C0F874
:1007000000117047F0B40E4B1B68C3F30223C3F112
:100710000704042C00D904241D1D072D01D2002339
:1007200000E0DB1E012606FA04F56D1E0D409D401B
:100730009E40761E164045EA0601F0BC00F0CFBF91
:100740000CED00E0064A00F0070110684FF6FF03C9
:10075000184040EA01200349084310607047000038
:100760000CED00E00000FA052DE9F0470D4604000D
:1007700067D0DFF81881D8F8000000F00700A84221
:100780000CD2D8F8001021F007012943C8F8001056
:10079000D8F8000000F00700A84252D120683C4E73
:1007A000810712D5400703D5706840F4E06070609F
:1007B0002078000703D5706840F46050706070685E
:1007C000A16820F0F000084370602078C00727D0AF
:1007D0006068012810D03168022810D089070029EC
:1007E0002FDA716821F0030101437160FFF73CFFCC
:1007F000074641F288390CE031688903EFE7890147
:10080000EDE7FFF731FFC11B494502D90320BDE8E1
:10081000F0877068616800F00C00B0EB810FF0D1D8
:10082000D8F80010404601F00701A9420BD9016831
:1008300021F0070129430160006800F00700A84289
:1008400001D00120E3E72078400705D57068E16812
:1008500020F4E060084370602078000706D57068D7
:10086000216920F4605040EAC100706000F038F85F
:100870007168084AC1F30311515CC8400649086019
:1008800006480068FFF710FF0020C0E70020024084
:100890000010024048190008000000200800002055
:1008A0000448054900684968044AC1F30221515CC3
:1008B000C84070470000002000100240581900088E
:1008C0000448054900684968044AC1F3C221515CE3
:1008D000C84070470000002000100240581900086E
:1008E00012A085B00FC88DE80F0014A0144B00684B
:1008F00004905968134801F00C02042A10D0082A09
:100900000ED1C1F38342C9031DF802000AD559680C
:1009100004AAC1F34041515C0A4A5043B0FBF1F0D4
:1009200005B0704708494843FAE700000203040590
:10093000060708090A0B0C0D0E0F1010010200002B
:100940000010024000127A0000093D002DE9F84F26
:1009500004006FD02078BE4DC00747D06868C0F350
:100960008100012807D06868C0F38100022809D1FE
:100970006868C00306D52868800337D560680028FA
:10098000E7D033E06068B0F5803F0BD010B1B0F530
:10099000A02F11D0286820F480302860286820F427
:1009A000802002E0286840F480302860606888B1C8
:1009B000FFF75AFE064609E0286840F480202860C8
:1009C000F0E7FFF751FE801B642873D82868800386
:1009D000F7D50BE0FFF748FE064604E0FFF744FEBC
:1009E000801B6428F1D828688003F7D42078DFF8CA
:1009F000648280074FF0010A4FF0000939D568681A
:100A000010F00C0F07D06868C0F38100022809D1EC
:100A10006868C00306D42868800714D520690128B7
:100A200008D110E02069B0B1C8F800A0FFF71CFEA3
:100A3000064605E007E1FFF717FE801B0228C4D831
:100A400028688007F7D52868616920F0F80040EA37
:100A5000C10028600DE0C8F80090FFF705FE0646CB
:100A600004E0FFF701FE801B022823D828688007D6
:100A7000F7D4207800072CD57748A169D9B1C0F800
:100A800000A0FFF7F1FD064604E0FFF7EDFD801B37
:100A900002280FD8686A8007F7D570484FF4FA51DA
:100AA0000068B0FBF1F0009000BF0098411E00917B
:100AB000FAD20EE07CE0C0F80090FFF7D5FD0646C4
:100AC00004E0FFF7D1FD801B022871D8686A800717
:100AD000F7D4207840075BD5E8690027C00008D428
:100AE000E86940F08050E861E869012700F0805033
:100AF00000905B480168C90511D40168834641F440
:100B000080710160FFF7B0FD064604E0FFF7ACFD21
:100B1000801B64284CD8DBF80000C005F6D5E068DF
:100B200001280AD008B1052813D0286A20F0010056
:100B30002862286A20F0040002E0286A40F00100E0
:100B40002862E06841F2883B88B1FFF78DFD0646D8
:100B500009E0286A40F004002862EEE7FFF784FD10
:100B6000811B59455BD8286A8007F7D50BE0FFF752
:100B70007BFD064604E0FFF777FD811B59454ED803
:100B8000286A8007F7D41FB1E86920F08050E86137
:100B9000E069A8B36968C1F38101022946D002283F
:100BA000484606D0C8F86000FFF75EFD044639E00D
:100BB00035E04746C8F86000FFF756FD064604E0FA
:100BC000FFF752FD801B022829D828688001F7D43E
:100BD000206AB0F5803F05D16868A16820F4003034
:100BE00008436860D4E908010843696821F4741176
:100BF00008436860C7F860A0FFF736FD044605E0CB
:100C000023E0FFF731FD001B022808D82868800187
:100C1000F7D51AE0FFF728FD001B022802D90320B0
:100C2000BDE8F88F28688001F4D40EE00128F7D0E1
:100C30006868226A00F48031914204D1616A00F44C
:100C40007010884201D00120EAE70020E8E70000A8
:100C50000010024000004242800442420000002096
:100C6000007000404FF0E0210428086903D020F014
:100C700004000861704740F00400FAE710B5401E18
:100C8000B0F1807F01D3012010BD4FF0E0246061FE
:100C90000F21601700F023FD0020A06107202061D4
:100CA000002010BD7047704710B5040003D094F8C1
:100CB0003D0010B107E0012010BD002084F83C0089
:100CC000204600F00DF8022084F83D00211D206828
:100CD00000F088FB012084F83D00002010BD0000DA
:100CE00008B500680B49884212D10B48C16941F030
:100CF0000201C161C069032200F0020000900121DD
:100D00001D20FFF7FFFCBDE808401D20FFF7EDBCEC
:100D100008BD000000040040001002400168CA68DD
:100D200042F00102CA600068816801F007010629EB
:100D300003D0016841F00101016000207047704755
:100D400070B50446006801694FF00005C943890782
:100D500015D4C168C943890711D4E91E0161012076
:100D60002077206880698007204602D0FFF7E7FFE0
:100D700004E000F098F8204600F096F82577206807
:100D80000169C943490717D4C168C943490713D446
:100D90006FF004010161022020772068806910F45F
:100DA000407F204602D0FFF7CAFF04E000F07BF846
:100DB000204600F079F8257720680169C9430907C2
:100DC00016D4C168C943090712D46FF00801016144
:100DD000042020772068C0698007204602D0FFF7F2
:100DE000AEFF04E000F05FF8204600F05DF82577E4
:100DF00020680169C943C90617D4C168C943C90637
:100E000013D46FF010010161082020772068C069B9
:100E100010F4407F204602D0FFF791FF04E000F07D
:100E200042F8204600F040F8257720680169C94360
:100E3000C90708D1C168C943C90704D1891E016126
:100E4000204600F033F820680169C943090609D437
:100E5000C168C943090605D46FF0800101612046CD
:100E6000FFF720FF20680169C943490609D4C1681A
:100E7000C943490605D46FF040010161204600F0E6
:100E80002DF820680169C94389060BD4C168C9439C
:100E9000890607D46FF0200101612046BDE870404B
:100EA000FFF701BF70BD70477047000008498842D6
:100EB0000CD108490868401C0860042806D9064976
:100EC0000888820402D040F4004008807047000087
:100ED0003C010020180000201600002070477047D9
:100EE00010F8391F407808437047000070B5026859
:100EF00004461068D168536910F00F0F50D003F00A
:100F0000010501F4907635435DD0C20705D0CA05CE
:100F100003D5E26B42F00102E263420705D5DA072E
:100F200003D0E26B42F00202E263820705D5DA07E2
:100F300003D0E26B42F00402E263020705D5DA0750
:100F400003D0E26B42F00802E263E26B002A33D086
:100F5000800604D5880602D5204600F09FFA206856
:100F60004069E16BC0F38010090700D428B3204624
:100F700000F086FA2068416949061AD5416921F0D6
:100F800040014161606BA0B11B494163606BFFF799
:100F9000D5F9002810D0606B416BBDE87040084760
:100FA000830610D58B060ED52046BDE8704000F0B4
:100FB00075BA2046FFF793FF70BD2046FFF78FFFFD
:100FC0000020E06370BD030606D50B0604D520465D
:100FD000BDE8704000F00ABB4006F3D54806F1D5E5
:100FE000D168204621F04001D160202184F83910D9
:100FF00000F025F970BD00007114000870B5040000
:1010000004D094F83900002510B106E0012070BD2D
:1010100084F83850204600F023F8242084F8390062
:101020002068C16821F40051C160204600F082FAB6
:101030002068016921F4904101612068416921F033
:101040002A0141612068C16841F40051C160E56333
:10105000202084F8390084F83A00002070BD000098
:1010600010B500681E4986B0884236D11D48816996
:1010700041F004018161816901F0040104918169F9
:1010800041F480418161816901F480410491816969
:1010900041F0010181618069134C00F0010004906E
:1010A0004FF4007000900220019001200290032074
:1010B000039069462046FFF7D9F9211500910021D8
:1010C000019169462046FFF7D1F92520FFF70DFB76
:1010D000032211462520FFF715FB06B010BD0000C6
:1010E00000380140001002400008014090F83A30FA
:1010F000202B22D1F9B1F2B190F83830012B1CD05D
:1011000081628285C2850021C163222280F83A2053
:1011100080F838100168CA6842F48072CA600168B9
:101120004A6942F001024A610068C16841F0200149
:10113000C160002070470120704702207047000006
:1011400030B500680B49884212D10B494888020427
:101150000ED40A4B0022C0F30D041A600B46084D52
:10116000401C1B7880B22B554880C72800D94A8084
:1011700030BD00000038014014000020180000209D
:10118000340000202DE9F843044690F839001E464B
:1011900017460D46202850D1A5B19FB194F83800CC
:1011A00001284AD0012084F838004FF00008C4F824
:1011B0003C80212084F83900FFF756FAA784814645
:1011C000E78426E00120BDE8F883E08C401EE0843F
:1011D000A0684B46B0F5805F4FF000024FF08001F1
:1011E0002046009603D000F032FAE8B90DE000F096
:1011F0002EFAC8B928882168C0F308004860206921
:1012000008B16D1C05E0AD1C03E0216815F8010B69
:101210004860E08C0028D8D14B460022402120466F
:10122000009600F014FA08B10320CCE7202084F8DF
:10123000390084F838800020C5E70220C3E77047F2
:10124000FEE7000070B5144886B0816941F00401E2
:101250008161816901F004010491816941F04001DB
:1012600081618069032400F040000490022001267F
:101270000025CDE90204CDE9006569460748FFF77E
:10128000F5F81C2003948DE8610069460448FFF7D7
:10129000EDF806B070BD00000010024000080140EB
:1012A0000018014030B5184885B0816941F0080147
:1012B0008161816901F008010491816941F0400177
:1012C00081618069202400F0400004900120CDE974
:1012D0000040029003200D4D039069462846FFF719
:1012E000C5F800940A4C69462046FFF7BFF8012272
:1012F00020212846FFF7B2F9012220212046FFF7DE
:10130000ADF905B030BD000000100240000C0140F6
:1013100000180140FEE770477047704730B58FB046
:10132000012100910225090400240795CDE901144B
:10133000CDE908106846FFF709FB00B1FEE70F2072
:10134000CDE90A054FF48060CDE90C4002210AA8DE
:101350000E94FFF709FA002800D0FEE70FB030BD69
:10136000FFF788B90D48016841F00101016041684B
:101370000B4A1140416001680A4A1140016001684E
:1013800021F480210160416821F4FE0141604FF4A5
:101390001F0181600449C0030860704700100240CB
:1013A0000000FFF8FFFFF6FE08ED00E00148FFF740
:1013B000C7BC00003C010020094A10B5074BC2E938
:1013C00000310021C2E9021010461161FFF76CFCE8
:1013D000BDE810400248FFF7A1BC00000004004037
:1013E0003C010020F0B502681C4D1D4E1D4FDFF87A
:1013F00078C01E4B4FF0804EA84209D0984207D0CB
:10140000704505D0B04203D0B84201D0604503D149
:1014100022F070044A682243A84209D0984207D0BB
:10142000704505D0B04203D0B84201D0604503D129
:1014300022F44074CA6822434C6922F0800222439D
:1014400002608A68C2620A688262A84201D0984239
:1014500001D10969016301214161F0BD002C014006
:101460000004004000080040000C0040003401402F
:1014700010B5406A0021C185C184FFF730FD10BD61
:101480000168CA6822F49072CA6001684A6922F051
:1014900001024A61202180F83A10704710B590F897
:1014A0003A10222901D0022010BD8168B1F5805F79
:1014B00011D00169002901681FD0496801F07F033C
:1014C000816A4A1C82620B70C18D491E0904090C95
:1014D000C18518D02BE00269816A002A026852682F
:1014E00005D0D2B20A80816A491C8162ECE7C2F35E
:1014F00008020A80816A891CF7E74A68816A4B1CE6
:1015000083620A70E0E70168CA6822F02002CA60BC
:101510000168CA6822F48072CA6001684A6922F0D0
:1015200001024A61202180F83A10FFF709FE0020ED
:1015300010BD00002DE9F041044600680169E26831
:1015400021F4405111430161A168206901436069A0
:1015500001432068C26841F20C639A430A43C260A7
:1015600020684169A26921F44071114341611E491B
:10157000206864253226884202D1FFF7A1F901E0F4
:10158000FFF78EF900EBC00101EB001160686FF00E
:1015900018078000B1FBF0F2B2FBF5F2B1FBF0F3FB
:1015A0007A4303EB8202B1FBF0F306EB0212B2FBCB
:1015B000F5F2B3FBF5F302F0F00202EB0312B1FB1C
:1015C000F0F3B1FBF0F0B0FBF5F0784303EB8000F3
:1015D00006EB0010B0FBF5F0216800F00F0010449E
:1015E0008860BDE8F08100000038014090F83910B3
:1015F000212901D0022070478168B1F5805F016A1E
:101600000BD04A1C0262026809785160C18C491EE5
:101610000904090CC1840ED017E009880268C1F3DF
:101620000801516001690029016A02D0491C016268
:10163000ECE7891CFBE70168CA6822F08002CA60F7
:101640000068C16841F04001C160002070472DE989
:10165000F0411E46174688460446069D1CE0681C5D
:101660001AD025B1FFF700F8801BA84214D92068D2
:10167000C16821F4D071C1602068416921F0010185
:101680004161202084F8390084F83A00002084F871
:1016900038000320BDE8F0812068016838EA0100C5
:1016A00004D00020B842DAD00020F3E70120F9E7A7
:1016B00010B50848FFF71AFC0648FFF711FC202870
:1016C000FAD1012204490348FFF710FD0028F8D1A0
:1016D00010BD0000FC00002014000020FEE70907F8
:1016E000090E002804DB00F1E02080F800147047A8
:1016F00000F00F0000F1E02080F8141D70477047E3
:1017000010B504460420FFF7ADFA0148046010BD8F
:1017100010000020FEF7B6FF4FF4E010FFF7FEFDCB
:101720004820FFF7EDFF4FF4964000F0F1F8FFF787
:10173000B9FDFFF787FD472140F20720FFF73CFE88
:1017400000F0B4F8FCE700002DE9F0411B481C4D07
:101750001C4A00780321287069709088174F43BA9B
:101760005800A87050880E4644BA0020BF1C0EE0F6
:1017700037F81420401C4FEA122C05F801C0491C10
:1017800089B280B26A54491C641C89B2A4B28342F3
:10179000EED806EB4400C1B20948FEF7A3FD05EB05
:1017A0004401C870000A0871052000EB4400BDE840
:1017B000F041C1B2024800F067B800001C000020F0
:1017C0007C0100203400002010B51148114C124A51
:1017D00001782170417861708178A170C178E170E1
:1017E00001792171417961714188808849BA40BA93
:1017F00022F8110006212046FEF774FDA071000AB0
:10180000E0712046BDE81040082100F03DB800001E
:10181000340000207C0100201E00002070B5174C11
:10182000174D06212078287060786870A078A8701D
:10183000E078E87020792871607968712846FEF7B1
:1018400051FDA871000AE87160880E4D41BAA08868
:1018500043BA002009E004EB40020E18B2F807205A
:10186000401C52BA25F8162080B29842F3D3BDE846
:1018700070400821024800F007B800003400002042
:101880007C0100201E0000200A4610B501464FF4DE
:101890007A730548FFF776FC034800680168C9437E
:1018A0004906FBD410BD0000FC00002070B5154DAA
:1018B0002888010424D5C0F30D04A01EC1B212482B
:1018C000FEF710FD104A80B2111931F8021C88424F
:1018D00014D10E491078097888420FD15078032826
:1018E00004D0062805D0102808D105E0FFF72CFF0A
:1018F00004E0FFF769FF01E0FFF790FF0020288078
:1019000070BD000016000020340000201C000020E4
:101910000B4910B5094AC1E9002000208860C86061
:10192000086188610C2048610846FFF767FBBDE845
:101930001040012203490248FFF7D8BB003801409C
:10194000FC00002014000020000000000000000047
:101950000102030406070809000000000102030455
:1019600000C1814001C0804101C0804100C181406F
:1019700001C0804100C1814000C1814001C080415F
:1019800001C0804100C1814000C1814001C080414F
:1019900000C1814001C0804101C0804100C181403F
:1019A00001C0804100C1814000C1814001C080412F
:1019B00000C1814001C0804101C0804100C181401F
:1019C00000C1814001C0804101C0804100C181400F
:1019D00001C0804100C1814000C1814001C08041FF
:1019E00001C0804100C1814000C1814001C08041EF
:1019F00000C1814001C0804101C0804100C18140DF
:101A000000C1814001C0804101C0804100C18140CE
:101A100001C0804100C1814000C1814001C08041BE
:101A200000C1814001C0804101C0804100C18140AE
:101A300001C0804100C1814000C1814001C080419E
:101A400001C0804100C1814000C1814001C080418E
:101A500000C1814001C0804101C0804100C181407E
:101A600000C0C101C30302C2C60607C705C5C4043E
:101A7000CC0C0DCD0FCFCE0E0ACACB0BC90908C8AE
:101A8000D81819D91BDBDA1A1EDEDF1FDD1D1CDC9E
:101A900014D4D515D71716D6D21213D311D1D0100E
:101AA000F03031F133F3F23236F6F737F53534F4FE
:101AB0003CFCFD3DFF3F3EFEFA3A3BFB39F9F8386E
:101AC00028E8E929EB2B2AEAEE2E2FEF2DEDEC2C5E
:101AD000E42425E527E7E62622E2E323E12120E0CE
:101AE000A06061A163A3A26266A6A767A56564A4BE
:101AF0006CACAD6DAF6F6EAEAA6A6BAB69A9A8682E
:101B000078B8B979BB7B7ABABE7E7FBF7DBDBC7C1D
:101B1000B47475B577B7B67672B2B373B17170B08D
:101B2000509091519353529296565797559594547D
:101B30009C5C5D9D5F9F9E5E5A9A9B5B99595898ED
:101B4000884849894B8B8A4A4E8E8F4F8D4D4C8CDD
:101B5000448485458747468682424383418180404D
:101B6000801B000800000020340000006C01000809
:101B7000B41B0008340000200C0800008801000895
:101B80000024F4000100000010000000000000002C
:101B90000000000000000000000000000100010043
:101BA0000200030004000500060007000800090009
:041BB0000000000031
:0400000508000131BD
:00000001FF
